{
  "contractName": "MilkChain",
  "abi": [
    {
      "inputs": [],
      "stateMutability": "nonpayable",
      "type": "constructor"
    },
    {
      "anonymous": false,
      "inputs": [
        {
          "indexed": false,
          "internalType": "uint256",
          "name": "newLotNumber",
          "type": "uint256"
        }
      ],
      "name": "ProcessReset",
      "type": "event"
    },
    {
      "anonymous": false,
      "inputs": [
        {
          "indexed": false,
          "internalType": "uint256",
          "name": "stepIndex",
          "type": "uint256"
        },
        {
          "indexed": false,
          "internalType": "string",
          "name": "name",
          "type": "string"
        },
        {
          "indexed": false,
          "internalType": "uint256",
          "name": "startTime",
          "type": "uint256"
        },
        {
          "indexed": false,
          "internalType": "uint256",
          "name": "endTime",
          "type": "uint256"
        },
        {
          "indexed": false,
          "internalType": "uint256",
          "name": "lotNumber",
          "type": "uint256"
        }
      ],
      "name": "StepCompleted",
      "type": "event"
    },
    {
      "inputs": [
        {
          "internalType": "uint256",
          "name": "",
          "type": "uint256"
        }
      ],
      "name": "completedSteps",
      "outputs": [
        {
          "internalType": "string",
          "name": "name",
          "type": "string"
        },
        {
          "internalType": "address",
          "name": "supervisor",
          "type": "address"
        },
        {
          "internalType": "bool",
          "name": "completed",
          "type": "bool"
        },
        {
          "internalType": "uint256",
          "name": "startTime",
          "type": "uint256"
        },
        {
          "internalType": "uint256",
          "name": "endTime",
          "type": "uint256"
        },
        {
          "internalType": "string",
          "name": "location",
          "type": "string"
        },
        {
          "internalType": "uint256",
          "name": "lotNumber",
          "type": "uint256"
        }
      ],
      "stateMutability": "view",
      "type": "function",
      "constant": true
    },
    {
      "inputs": [],
      "name": "currentLotNumber",
      "outputs": [
        {
          "internalType": "uint256",
          "name": "",
          "type": "uint256"
        }
      ],
      "stateMutability": "view",
      "type": "function",
      "constant": true
    },
    {
      "inputs": [],
      "name": "currentStepIndex",
      "outputs": [
        {
          "internalType": "uint256",
          "name": "",
          "type": "uint256"
        }
      ],
      "stateMutability": "view",
      "type": "function",
      "constant": true
    },
    {
      "inputs": [
        {
          "internalType": "uint256",
          "name": "",
          "type": "uint256"
        }
      ],
      "name": "steps",
      "outputs": [
        {
          "internalType": "string",
          "name": "name",
          "type": "string"
        },
        {
          "internalType": "address",
          "name": "supervisor",
          "type": "address"
        },
        {
          "internalType": "bool",
          "name": "completed",
          "type": "bool"
        },
        {
          "internalType": "uint256",
          "name": "startTime",
          "type": "uint256"
        },
        {
          "internalType": "uint256",
          "name": "endTime",
          "type": "uint256"
        },
        {
          "internalType": "string",
          "name": "location",
          "type": "string"
        },
        {
          "internalType": "uint256",
          "name": "lotNumber",
          "type": "uint256"
        }
      ],
      "stateMutability": "view",
      "type": "function",
      "constant": true
    },
    {
      "inputs": [
        {
          "internalType": "uint256",
          "name": "stepIndex",
          "type": "uint256"
        },
        {
          "internalType": "address",
          "name": "supervisor",
          "type": "address"
        }
      ],
      "name": "assignSupervisor",
      "outputs": [],
      "stateMutability": "nonpayable",
      "type": "function"
    },
    {
      "inputs": [
        {
          "internalType": "string",
          "name": "_location",
          "type": "string"
        }
      ],
      "name": "completeStep",
      "outputs": [],
      "stateMutability": "nonpayable",
      "type": "function"
    },
    {
      "inputs": [],
      "name": "getStepsLength",
      "outputs": [
        {
          "internalType": "uint256",
          "name": "",
          "type": "uint256"
        }
      ],
      "stateMutability": "view",
      "type": "function",
      "constant": true
    },
    {
      "inputs": [
        {
          "internalType": "uint256",
          "name": "index",
          "type": "uint256"
        }
      ],
      "name": "getStep",
      "outputs": [
        {
          "internalType": "string",
          "name": "",
          "type": "string"
        },
        {
          "internalType": "address",
          "name": "",
          "type": "address"
        },
        {
          "internalType": "bool",
          "name": "",
          "type": "bool"
        },
        {
          "internalType": "uint256",
          "name": "",
          "type": "uint256"
        },
        {
          "internalType": "uint256",
          "name": "",
          "type": "uint256"
        },
        {
          "internalType": "string",
          "name": "",
          "type": "string"
        },
        {
          "internalType": "uint256",
          "name": "",
          "type": "uint256"
        }
      ],
      "stateMutability": "view",
      "type": "function",
      "constant": true
    },
    {
      "inputs": [],
      "name": "getCompletedStepsLength",
      "outputs": [
        {
          "internalType": "uint256",
          "name": "",
          "type": "uint256"
        }
      ],
      "stateMutability": "view",
      "type": "function",
      "constant": true
    },
    {
      "inputs": [
        {
          "internalType": "uint256",
          "name": "index",
          "type": "uint256"
        }
      ],
      "name": "getCompletedStep",
      "outputs": [
        {
          "internalType": "string",
          "name": "",
          "type": "string"
        },
        {
          "internalType": "address",
          "name": "",
          "type": "address"
        },
        {
          "internalType": "bool",
          "name": "",
          "type": "bool"
        },
        {
          "internalType": "uint256",
          "name": "",
          "type": "uint256"
        },
        {
          "internalType": "uint256",
          "name": "",
          "type": "uint256"
        },
        {
          "internalType": "string",
          "name": "",
          "type": "string"
        },
        {
          "internalType": "uint256",
          "name": "",
          "type": "uint256"
        }
      ],
      "stateMutability": "view",
      "type": "function",
      "constant": true
    },
    {
      "inputs": [],
      "name": "isProcessCompleted",
      "outputs": [
        {
          "internalType": "bool",
          "name": "",
          "type": "bool"
        }
      ],
      "stateMutability": "view",
      "type": "function",
      "constant": true
    },
    {
      "inputs": [],
      "name": "getCurrentLotNumber",
      "outputs": [
        {
          "internalType": "uint256",
          "name": "",
          "type": "uint256"
        }
      ],
      "stateMutability": "view",
      "type": "function",
      "constant": true
    },
    {
      "inputs": [
        {
          "internalType": "uint256",
          "name": "index",
          "type": "uint256"
        },
        {
          "internalType": "string",
          "name": "name",
          "type": "string"
        }
      ],
      "name": "setStepName",
      "outputs": [],
      "stateMutability": "nonpayable",
      "type": "function"
    },
    {
      "inputs": [
        {
          "internalType": "uint256",
          "name": "index",
          "type": "uint256"
        },
        {
          "internalType": "address",
          "name": "supervisor",
          "type": "address"
        }
      ],
      "name": "setStepSupervisor",
      "outputs": [],
      "stateMutability": "nonpayable",
      "type": "function"
    },
    {
      "inputs": [
        {
          "internalType": "uint256",
          "name": "index",
          "type": "uint256"
        },
        {
          "internalType": "string",
          "name": "location",
          "type": "string"
        }
      ],
      "name": "setStepLocation",
      "outputs": [],
      "stateMutability": "nonpayable",
      "type": "function"
    },
    {
      "inputs": [
        {
          "internalType": "uint256",
          "name": "index",
          "type": "uint256"
        },
        {
          "internalType": "bool",
          "name": "completed",
          "type": "bool"
        }
      ],
      "name": "setStepCompleted",
      "outputs": [],
      "stateMutability": "nonpayable",
      "type": "function"
    },
    {
      "inputs": [
        {
          "internalType": "uint256",
          "name": "index",
          "type": "uint256"
        },
        {
          "internalType": "uint256",
          "name": "startTime",
          "type": "uint256"
        }
      ],
      "name": "setStepStartTime",
      "outputs": [],
      "stateMutability": "nonpayable",
      "type": "function"
    },
    {
      "inputs": [
        {
          "internalType": "uint256",
          "name": "index",
          "type": "uint256"
        },
        {
          "internalType": "uint256",
          "name": "endTime",
          "type": "uint256"
        }
      ],
      "name": "setStepEndTime",
      "outputs": [],
      "stateMutability": "nonpayable",
      "type": "function"
    },
    {
      "inputs": [
        {
          "internalType": "uint256",
          "name": "index",
          "type": "uint256"
        },
        {
          "internalType": "uint256",
          "name": "lotNumber",
          "type": "uint256"
        }
      ],
      "name": "setLotNumber",
      "outputs": [],
      "stateMutability": "nonpayable",
      "type": "function"
    },
    {
      "inputs": [
        {
          "internalType": "uint256",
          "name": "lotNumber",
          "type": "uint256"
        }
      ],
      "name": "getLot",
      "outputs": [
        {
          "components": [
            {
              "internalType": "string",
              "name": "name",
              "type": "string"
            },
            {
              "internalType": "address",
              "name": "supervisor",
              "type": "address"
            },
            {
              "internalType": "bool",
              "name": "completed",
              "type": "bool"
            },
            {
              "internalType": "uint256",
              "name": "startTime",
              "type": "uint256"
            },
            {
              "internalType": "uint256",
              "name": "endTime",
              "type": "uint256"
            },
            {
              "internalType": "string",
              "name": "location",
              "type": "string"
            },
            {
              "internalType": "uint256",
              "name": "lotNumber",
              "type": "uint256"
            }
          ],
          "internalType": "struct MilkChain.Step[]",
          "name": "",
          "type": "tuple[]"
        }
      ],
      "stateMutability": "view",
      "type": "function",
      "constant": true
    }
  ],
  "bytecode": "0x60806040523480156200001157600080fd5b5060016003819055506200002a6200003060201b60201c565b620008e8565b60006040518060e001604052806040518060400160405280600881526020017f526163636f6c74610000000000000000000000000000000000000000000000008152508152602001600073ffffffffffffffffffffffffffffffffffffffff1681526020016000151581526020016000815260200160008152602001604051806020016040528060008152508152602001600354815250908060018154018082558091505060019003906000526020600020906006020160009091909190915060008201518160000190805190602001906200010e929190620007d3565b5060208201518160010160006101000a81548173ffffffffffffffffffffffffffffffffffffffff021916908373ffffffffffffffffffffffffffffffffffffffff16021790555060408201518160010160146101000a81548160ff021916908315150217905550606082015181600201556080820151816003015560a0820151816004019080519060200190620001a8929190620007d3565b5060c08201518160050155505060006040518060e001604052806040518060400160405280600981526020017f54726173706f72746f00000000000000000000000000000000000000000000008152508152602001600073ffffffffffffffffffffffffffffffffffffffff16815260200160001515815260200160008152602001600081526020016040518060200160405280600081525081526020016003548152509080600181540180825580915050600190039060005260206000209060060201600090919091909150600082015181600001908051906020019062000293929190620007d3565b5060208201518160010160006101000a81548173ffffffffffffffffffffffffffffffffffffffff021916908373ffffffffffffffffffffffffffffffffffffffff16021790555060408201518160010160146101000a81548160ff021916908315150217905550606082015181600201556080820151816003015560a08201518160040190805190602001906200032d929190620007d3565b5060c08201518160050155505060006040518060e001604052806040518060400160405280600b81526020017f4c61766f72617a696f6e650000000000000000000000000000000000000000008152508152602001600073ffffffffffffffffffffffffffffffffffffffff16815260200160001515815260200160008152602001600081526020016040518060200160405280600081525081526020016003548152509080600181540180825580915050600190039060005260206000209060060201600090919091909150600082015181600001908051906020019062000418929190620007d3565b5060208201518160010160006101000a81548173ffffffffffffffffffffffffffffffffffffffff021916908373ffffffffffffffffffffffffffffffffffffffff16021790555060408201518160010160146101000a81548160ff021916908315150217905550606082015181600201556080820151816003015560a0820151816004019080519060200190620004b2929190620007d3565b5060c08201518160050155505060006040518060e001604052806040518060400160405280600f81526020017f436f6e66657a696f6e616d656e746f00000000000000000000000000000000008152508152602001600073ffffffffffffffffffffffffffffffffffffffff1681526020016000151581526020016000815260200160008152602001604051806020016040528060008152508152602001600354815250908060018154018082558091505060019003906000526020600020906006020160009091909190915060008201518160000190805190602001906200059d929190620007d3565b5060208201518160010160006101000a81548173ffffffffffffffffffffffffffffffffffffffff021916908373ffffffffffffffffffffffffffffffffffffffff16021790555060408201518160010160146101000a81548160ff021916908315150217905550606082015181600201556080820151816003015560a082015181600401908051906020019062000637929190620007d3565b5060c08201518160050155505060006040518060e001604052806040518060400160405280600d81526020017f44697374726962757a696f6e65000000000000000000000000000000000000008152508152602001600073ffffffffffffffffffffffffffffffffffffffff16815260200160001515815260200160008152602001600081526020016040518060200160405280600081525081526020016003548152509080600181540180825580915050600190039060005260206000209060060201600090919091909150600082015181600001908051906020019062000722929190620007d3565b5060208201518160010160006101000a81548173ffffffffffffffffffffffffffffffffffffffff021916908373ffffffffffffffffffffffffffffffffffffffff16021790555060408201518160010160146101000a81548160ff021916908315150217905550606082015181600201556080820151816003015560a0820151816004019080519060200190620007bc929190620007d3565b5060c0820151816005015550506000600181905550565b828054620007e19062000883565b90600052602060002090601f01602090048101928262000805576000855562000851565b82601f106200082057805160ff191683800117855562000851565b8280016001018555821562000851579182015b828111156200085057825182559160200191906001019062000833565b5b50905062000860919062000864565b5090565b5b808211156200087f57600081600090555060010162000865565b5090565b600060028204905060018216806200089c57607f821691505b60208210811415620008b357620008b2620008b9565b5b50919050565b7f4e487b7100000000000000000000000000000000000000000000000000000000600052602260045260246000fd5b612e7480620008f86000396000f3fe608060405234801561001057600080fd5b506004361061012c5760003560e01c80637ae4e838116100ad578063ad1e954e11610071578063ad1e954e1461033d578063ba89d2bc1461035b578063c904b74214610377578063c9b021c214610395578063f022f339146103b35761012c565b80637ae4e8381461027f5780638b1659f51461029b578063925c4d8f146102b95780639482eeaa146102ef578063ab995d121461030d5761012c565b806355799019116100f457806355799019146101bf5780635b122e7e146101db5780637217e0b9146101f75780637360edd71461022d5780637874888a146102495761012c565b8063040c22c014610131578063334f45ec1461014d5780633cbcf6c61461016b578063411e5eb91461018757806344054931146101a3575b600080fd5b61014b600480360381019061014691906123db565b6103e9565b005b6101556107c1565b6040516101629190612ad1565b60405180910390f35b61018560048036038101906101809190612511565b6107c7565b005b6101a1600480360381019061019c9190612445565b610862565b005b6101bd60048036038101906101b89190612445565b610937565b005b6101d960048036038101906101d49190612511565b610a0c565b005b6101f560048036038101906101f09190612511565b610aa7565b005b610211600480360381019061020c919061241c565b610b42565b60405161022497969594939291906129b4565b60405180910390f35b610247600480360381019061024291906124bd565b610cd1565b005b610263600480360381019061025e919061241c565b610d7c565b60405161027697969594939291906129b4565b60405180910390f35b610299600480360381019061029491906124bd565b610f99565b005b6102a3611044565b6040516102b09190612999565b60405180910390f35b6102d360048036038101906102ce919061241c565b611055565b6040516102e697969594939291906129b4565b60405180910390f35b6102f76111e4565b6040516103049190612ad1565b60405180910390f35b6103276004803603810190610322919061241c565b6111f1565b6040516103349190612977565b60405180910390f35b6103456115d4565b6040516103529190612ad1565b60405180910390f35b61037560048036038101906103709190612481565b6115de565b005b61037f61168c565b60405161038c9190612ad1565b60405180910390f35b61039d611698565b6040516103aa9190612ad1565b60405180910390f35b6103cd60048036038101906103c8919061241c565b61169e565b6040516103e097969594939291906129b4565b60405180910390f35b60008054905060015410610432576040517f08c379a000000000000000000000000000000000000000000000000000000000815260040161042990612a91565b60405180910390fd5b6000806001548154811061046f577f4e487b7100000000000000000000000000000000000000000000000000000000600052603260045260246000fd5b906000526020600020906006020190508060010160009054906101000a900473ffffffffffffffffffffffffffffffffffffffff1673ffffffffffffffffffffffffffffffffffffffff163373ffffffffffffffffffffffffffffffffffffffff1614610511576040517f08c379a000000000000000000000000000000000000000000000000000000000815260040161050890612a51565b60405180910390fd5b60018160010160146101000a81548160ff02191690831515021790555042816003018190555060006001541415610550574281600201819055506105b2565b6000600180546105609190612c22565b81548110610597577f4e487b7100000000000000000000000000000000000000000000000000000000600052603260045260246000fd5b90600052602060002090600602016003015481600201819055505b6105bb826118bd565b6105fa576040517f08c379a00000000000000000000000000000000000000000000000000000000081526004016105f190612a31565b60405180910390fd5b818160040190805190602001906106129291906120c1565b5060035481600501819055506002819080600181540180825580915050600190039060005260206000209060060201600090919091909150600082018160000190805461065e90612ce0565b610669929190612147565b506001820160009054906101000a900473ffffffffffffffffffffffffffffffffffffffff168160010160006101000a81548173ffffffffffffffffffffffffffffffffffffffff021916908373ffffffffffffffffffffffffffffffffffffffff1602179055506001820160149054906101000a900460ff168160010160146101000a81548160ff0219169083151502179055506002820154816002015560038201548160030155600482018160040190805461072690612ce0565b610731929190612147565b506005820154816005015550507fc0adf46dbf94d17dc241de7be8c2f645a7c22cf158ce69655005583133a2da9a60015482600001836002015484600301548560050154604051610786959493929190612aec565b60405180910390a1600160008154809291906107a190612d12565b9190505550600080549050600154106107bd576107bc6118ca565b5b5050565b60015481565b600080549050821061080e576040517f08c379a000000000000000000000000000000000000000000000000000000000815260040161080590612a71565b60405180910390fd5b8060008381548110610849577f4e487b7100000000000000000000000000000000000000000000000000000000600052603260045260246000fd5b9060005260206000209060060201600201819055505050565b60008054905082106108a9576040517f08c379a00000000000000000000000000000000000000000000000000000000081526004016108a090612a71565b60405180910390fd5b80600083815481106108e4577f4e487b7100000000000000000000000000000000000000000000000000000000600052603260045260246000fd5b906000526020600020906006020160010160006101000a81548173ffffffffffffffffffffffffffffffffffffffff021916908373ffffffffffffffffffffffffffffffffffffffff1602179055505050565b600080549050821061097e576040517f08c379a000000000000000000000000000000000000000000000000000000000815260040161097590612a71565b60405180910390fd5b80600083815481106109b9577f4e487b7100000000000000000000000000000000000000000000000000000000600052603260045260246000fd5b906000526020600020906006020160010160006101000a81548173ffffffffffffffffffffffffffffffffffffffff021916908373ffffffffffffffffffffffffffffffffffffffff1602179055505050565b6000805490508210610a53576040517f08c379a0000000000000000000000000000000000000000000000000000000008152600401610a4a90612a71565b60405180910390fd5b8060008381548110610a8e577f4e487b7100000000000000000000000000000000000000000000000000000000600052603260045260246000fd5b9060005260206000209060060201600301819055505050565b6000805490508210610aee576040517f08c379a0000000000000000000000000000000000000000000000000000000008152600401610ae590612a71565b60405180910390fd5b8060008381548110610b29577f4e487b7100000000000000000000000000000000000000000000000000000000600052603260045260246000fd5b9060005260206000209060060201600501819055505050565b60008181548110610b5257600080fd5b9060005260206000209060060201600091509050806000018054610b7590612ce0565b80601f0160208091040260200160405190810160405280929190818152602001828054610ba190612ce0565b8015610bee5780601f10610bc357610100808354040283529160200191610bee565b820191906000526020600020905b815481529060010190602001808311610bd157829003601f168201915b5050505050908060010160009054906101000a900473ffffffffffffffffffffffffffffffffffffffff16908060010160149054906101000a900460ff1690806002015490806003015490806004018054610c4890612ce0565b80601f0160208091040260200160405190810160405280929190818152602001828054610c7490612ce0565b8015610cc15780601f10610c9657610100808354040283529160200191610cc1565b820191906000526020600020905b815481529060010190602001808311610ca457829003601f168201915b5050505050908060050154905087565b6000805490508210610d18576040517f08c379a0000000000000000000000000000000000000000000000000000000008152600401610d0f90612a71565b60405180910390fd5b8060008381548110610d53577f4e487b7100000000000000000000000000000000000000000000000000000000600052603260045260246000fd5b90600052602060002090600602016004019080519060200190610d779291906120c1565b505050565b60606000806000806060600080805490508810610dce576040517f08c379a0000000000000000000000000000000000000000000000000000000008152600401610dc590612a71565b60405180910390fd5b6000808981548110610e09577f4e487b7100000000000000000000000000000000000000000000000000000000600052603260045260246000fd5b90600052602060002090600602019050806000018160010160009054906101000a900473ffffffffffffffffffffffffffffffffffffffff168260010160149054906101000a900460ff1683600201548460030154856004018660050154868054610e7390612ce0565b80601f0160208091040260200160405190810160405280929190818152602001828054610e9f90612ce0565b8015610eec5780601f10610ec157610100808354040283529160200191610eec565b820191906000526020600020905b815481529060010190602001808311610ecf57829003601f168201915b50505050509650818054610eff90612ce0565b80601f0160208091040260200160405190810160405280929190818152602001828054610f2b90612ce0565b8015610f785780601f10610f4d57610100808354040283529160200191610f78565b820191906000526020600020905b815481529060010190602001808311610f5b57829003601f168201915b50505050509150975097509750975097509750975050919395979092949650565b6000805490508210610fe0576040517f08c379a0000000000000000000000000000000000000000000000000000000008152600401610fd790612a71565b60405180910390fd5b806000838154811061101b577f4e487b7100000000000000000000000000000000000000000000000000000000600052603260045260246000fd5b9060005260206000209060060201600001908051906020019061103f9291906120c1565b505050565b600080805490506001541015905090565b6002818154811061106557600080fd5b906000526020600020906006020160009150905080600001805461108890612ce0565b80601f01602080910402602001604051908101604052809291908181526020018280546110b490612ce0565b80156111015780601f106110d657610100808354040283529160200191611101565b820191906000526020600020905b8154815290600101906020018083116110e457829003601f168201915b5050505050908060010160009054906101000a900473ffffffffffffffffffffffffffffffffffffffff16908060010160149054906101000a900460ff169080600201549080600301549080600401805461115b90612ce0565b80601f016020809104026020016040519081016040528092919081815260200182805461118790612ce0565b80156111d45780601f106111a9576101008083540402835291602001916111d4565b820191906000526020600020905b8154815290600101906020018083116111b757829003601f168201915b5050505050908060050154905087565b6000600280549050905090565b60606000805b60028054905081101561127957836002828154811061123f577f4e487b7100000000000000000000000000000000000000000000000000000000600052603260045260246000fd5b906000526020600020906006020160050154141561126657818061126290612d12565b9250505b808061127190612d12565b9150506111f7565b5060008167ffffffffffffffff8111156112bc577f4e487b7100000000000000000000000000000000000000000000000000000000600052604160045260246000fd5b6040519080825280602002602001820160405280156112f557816020015b6112e26121d4565b8152602001906001900390816112da5790505b5090506000805b6002805490508110156115c8578560028281548110611344577f4e487b7100000000000000000000000000000000000000000000000000000000600052603260045260246000fd5b90600052602060002090600602016005015414156115b55760028181548110611396577f4e487b7100000000000000000000000000000000000000000000000000000000600052603260045260246000fd5b90600052602060002090600602016040518060e00160405290816000820180546113bf90612ce0565b80601f01602080910402602001604051908101604052809291908181526020018280546113eb90612ce0565b80156114385780601f1061140d57610100808354040283529160200191611438565b820191906000526020600020905b81548152906001019060200180831161141b57829003601f168201915b505050505081526020016001820160009054906101000a900473ffffffffffffffffffffffffffffffffffffffff1673ffffffffffffffffffffffffffffffffffffffff1673ffffffffffffffffffffffffffffffffffffffff1681526020016001820160149054906101000a900460ff1615151515815260200160028201548152602001600382015481526020016004820180546114d690612ce0565b80601f016020809104026020016040519081016040528092919081815260200182805461150290612ce0565b801561154f5780601f106115245761010080835404028352916020019161154f565b820191906000526020600020905b81548152906001019060200180831161153257829003601f168201915b5050505050815260200160058201548152505083838151811061159b577f4e487b7100000000000000000000000000000000000000000000000000000000600052603260045260246000fd5b602002602001018190525081806115b190612d12565b9250505b80806115c090612d12565b9150506112fc565b50819350505050919050565b6000600354905090565b6000805490508210611625576040517f08c379a000000000000000000000000000000000000000000000000000000000815260040161161c90612a71565b60405180910390fd5b8060008381548110611660577f4e487b7100000000000000000000000000000000000000000000000000000000600052603260045260246000fd5b906000526020600020906006020160010160146101000a81548160ff0219169083151502179055505050565b60008080549050905090565b60035481565b60606000806000806060600060028054905088106116f1576040517f08c379a00000000000000000000000000000000000000000000000000000000081526004016116e890612ab1565b60405180910390fd5b60006002898154811061172d577f4e487b7100000000000000000000000000000000000000000000000000000000600052603260045260246000fd5b90600052602060002090600602019050806000018160010160009054906101000a900473ffffffffffffffffffffffffffffffffffffffff168260010160149054906101000a900460ff168360020154846003015485600401866005015486805461179790612ce0565b80601f01602080910402602001604051908101604052809291908181526020018280546117c390612ce0565b80156118105780601f106117e557610100808354040283529160200191611810565b820191906000526020600020905b8154815290600101906020018083116117f357829003601f168201915b5050505050965081805461182390612ce0565b80601f016020809104026020016040519081016040528092919081815260200182805461184f90612ce0565b801561189c5780601f106118715761010080835404028352916020019161189c565b820191906000526020600020905b81548152906001019060200180831161187f57829003601f168201915b50505050509150975097509750975097509750975050919395979092949650565b6000808251119050919050565b6000806118d79190612229565b6118df611932565b600360008154809291906118f290612d12565b91905055507f74c97f258db595b9ae4389bbb720db98e2437f4c7e079c5ef85dc56ac62a4d886003546040516119289190612ad1565b60405180910390a1565b60006040518060e001604052806040518060400160405280600881526020017f526163636f6c74610000000000000000000000000000000000000000000000008152508152602001600073ffffffffffffffffffffffffffffffffffffffff168152602001600015158152602001600081526020016000815260200160405180602001604052806000815250815260200160035481525090806001815401808255809150506001900390600052602060002090600602016000909190919091506000820151816000019080519060200190611a0e9291906120c1565b5060208201518160010160006101000a81548173ffffffffffffffffffffffffffffffffffffffff021916908373ffffffffffffffffffffffffffffffffffffffff16021790555060408201518160010160146101000a81548160ff021916908315150217905550606082015181600201556080820151816003015560a0820151816004019080519060200190611aa69291906120c1565b5060c08201518160050155505060006040518060e001604052806040518060400160405280600981526020017f54726173706f72746f00000000000000000000000000000000000000000000008152508152602001600073ffffffffffffffffffffffffffffffffffffffff168152602001600015158152602001600081526020016000815260200160405180602001604052806000815250815260200160035481525090806001815401808255809150506001900390600052602060002090600602016000909190919091506000820151816000019080519060200190611b8f9291906120c1565b5060208201518160010160006101000a81548173ffffffffffffffffffffffffffffffffffffffff021916908373ffffffffffffffffffffffffffffffffffffffff16021790555060408201518160010160146101000a81548160ff021916908315150217905550606082015181600201556080820151816003015560a0820151816004019080519060200190611c279291906120c1565b5060c08201518160050155505060006040518060e001604052806040518060400160405280600b81526020017f4c61766f72617a696f6e650000000000000000000000000000000000000000008152508152602001600073ffffffffffffffffffffffffffffffffffffffff168152602001600015158152602001600081526020016000815260200160405180602001604052806000815250815260200160035481525090806001815401808255809150506001900390600052602060002090600602016000909190919091506000820151816000019080519060200190611d109291906120c1565b5060208201518160010160006101000a81548173ffffffffffffffffffffffffffffffffffffffff021916908373ffffffffffffffffffffffffffffffffffffffff16021790555060408201518160010160146101000a81548160ff021916908315150217905550606082015181600201556080820151816003015560a0820151816004019080519060200190611da89291906120c1565b5060c08201518160050155505060006040518060e001604052806040518060400160405280600f81526020017f436f6e66657a696f6e616d656e746f00000000000000000000000000000000008152508152602001600073ffffffffffffffffffffffffffffffffffffffff168152602001600015158152602001600081526020016000815260200160405180602001604052806000815250815260200160035481525090806001815401808255809150506001900390600052602060002090600602016000909190919091506000820151816000019080519060200190611e919291906120c1565b5060208201518160010160006101000a81548173ffffffffffffffffffffffffffffffffffffffff021916908373ffffffffffffffffffffffffffffffffffffffff16021790555060408201518160010160146101000a81548160ff021916908315150217905550606082015181600201556080820151816003015560a0820151816004019080519060200190611f299291906120c1565b5060c08201518160050155505060006040518060e001604052806040518060400160405280600d81526020017f44697374726962757a696f6e65000000000000000000000000000000000000008152508152602001600073ffffffffffffffffffffffffffffffffffffffff1681526020016000151581526020016000815260200160008152602001604051806020016040528060008152508152602001600354815250908060018154018082558091505060019003906000526020600020906006020160009091909190915060008201518160000190805190602001906120129291906120c1565b5060208201518160010160006101000a81548173ffffffffffffffffffffffffffffffffffffffff021916908373ffffffffffffffffffffffffffffffffffffffff16021790555060408201518160010160146101000a81548160ff021916908315150217905550606082015181600201556080820151816003015560a08201518160040190805190602001906120aa9291906120c1565b5060c0820151816005015550506000600181905550565b8280546120cd90612ce0565b90600052602060002090601f0160209004810192826120ef5760008555612136565b82601f1061210857805160ff1916838001178555612136565b82800160010185558215612136579182015b8281111561213557825182559160200191906001019061211a565b5b509050612143919061224d565b5090565b82805461215390612ce0565b90600052602060002090601f01602090048101928261217557600085556121c3565b82601f1061218657805485556121c3565b828001600101855582156121c357600052602060002091601f016020900482015b828111156121c25782548255916001019190600101906121a7565b5b5090506121d0919061224d565b5090565b6040518060e0016040528060608152602001600073ffffffffffffffffffffffffffffffffffffffff168152602001600015158152602001600081526020016000815260200160608152602001600081525090565b508054600082556006029060005260206000209081019061224a919061226a565b50565b5b8082111561226657600081600090555060010161224e565b5090565b5b808211156122f0576000808201600061228491906122f4565b6001820160006101000a81549073ffffffffffffffffffffffffffffffffffffffff02191690556001820160146101000a81549060ff0219169055600282016000905560038201600090556004820160006122df91906122f4565b60058201600090555060060161226b565b5090565b50805461230090612ce0565b6000825580601f106123125750612331565b601f016020900490600052602060002090810190612330919061224d565b5b50565b600061234761234284612b77565b612b46565b90508281526020810184848401111561235f57600080fd5b61236a848285612c9e565b509392505050565b60008135905061238181612df9565b92915050565b60008135905061239681612e10565b92915050565b600082601f8301126123ad57600080fd5b81356123bd848260208601612334565b91505092915050565b6000813590506123d581612e27565b92915050565b6000602082840312156123ed57600080fd5b600082013567ffffffffffffffff81111561240757600080fd5b6124138482850161239c565b91505092915050565b60006020828403121561242e57600080fd5b600061243c848285016123c6565b91505092915050565b6000806040838503121561245857600080fd5b6000612466858286016123c6565b925050602061247785828601612372565b9150509250929050565b6000806040838503121561249457600080fd5b60006124a2858286016123c6565b92505060206124b385828601612387565b9150509250929050565b600080604083850312156124d057600080fd5b60006124de858286016123c6565b925050602083013567ffffffffffffffff8111156124fb57600080fd5b6125078582860161239c565b9150509250929050565b6000806040838503121561252457600080fd5b6000612532858286016123c6565b9250506020612543858286016123c6565b9150509250929050565b600061255983836128b6565b905092915050565b61256a81612c56565b82525050565b61257981612c56565b82525050565b600061258a82612bcc565b6125948185612bef565b9350836020820285016125a685612ba7565b8060005b858110156125e257848403895281516125c3858261254d565b94506125ce83612be2565b925060208a019950506001810190506125aa565b50829750879550505050505092915050565b6125fd81612c68565b82525050565b61260c81612c68565b82525050565b600061261d82612bd7565b6126278185612c00565b9350612637818560208601612cad565b61264081612de8565b840191505092915050565b600061265682612bd7565b6126608185612c11565b9350612670818560208601612cad565b61267981612de8565b840191505092915050565b6000815461269181612ce0565b61269b8186612c11565b945060018216600081146126b657600181146126c8576126fb565b60ff19831686526020860193506126fb565b6126d185612bb7565b60005b838110156126f3578154818901526001820191506020810190506126d4565b808801955050505b50505092915050565b6000612711602883612c11565b91507f4c6f636174696f6e206973206e6f7420726561736f6e61626c6520666f72207460008301527f68697320737465700000000000000000000000000000000000000000000000006020830152604082019050919050565b6000612777602e83612c11565b91507f4f6e6c792061737369676e65642073757065727669736f722063616e20636f6d60008301527f706c6574652074686520737465700000000000000000000000000000000000006020830152604082019050919050565b60006127dd601783612c11565b91507f5374657020696e646578206f7574206f662072616e67650000000000000000006000830152602082019050919050565b600061281d601f83612c11565b91507f416c6c2073746570732061726520616c726561647920636f6d706c65746564006000830152602082019050919050565b600061285d602183612c11565b91507f436f6d706c65746564207374657020696e646578206f7574206f662072616e6760008301527f65000000000000000000000000000000000000000000000000000000000000006020830152604082019050919050565b600060e08301600083015184820360008601526128d38282612612565b91505060208301516128e86020860182612561565b5060408301516128fb60408601826125f4565b50606083015161290e6060860182612959565b5060808301516129216080860182612959565b5060a083015184820360a08601526129398282612612565b91505060c083015161294e60c0860182612959565b508091505092915050565b61296281612c94565b82525050565b61297181612c94565b82525050565b60006020820190508181036000830152612991818461257f565b905092915050565b60006020820190506129ae6000830184612603565b92915050565b600060e08201905081810360008301526129ce818a61264b565b90506129dd6020830189612570565b6129ea6040830188612603565b6129f76060830187612968565b612a046080830186612968565b81810360a0830152612a16818561264b565b9050612a2560c0830184612968565b98975050505050505050565b60006020820190508181036000830152612a4a81612704565b9050919050565b60006020820190508181036000830152612a6a8161276a565b9050919050565b60006020820190508181036000830152612a8a816127d0565b9050919050565b60006020820190508181036000830152612aaa81612810565b9050919050565b60006020820190508181036000830152612aca81612850565b9050919050565b6000602082019050612ae66000830184612968565b92915050565b600060a082019050612b016000830188612968565b8181036020830152612b138187612684565b9050612b226040830186612968565b612b2f6060830185612968565b612b3c6080830184612968565b9695505050505050565b6000604051905081810181811067ffffffffffffffff82111715612b6d57612b6c612db9565b5b8060405250919050565b600067ffffffffffffffff821115612b9257612b91612db9565b5b601f19601f8301169050602081019050919050565b6000819050602082019050919050565b60008190508160005260206000209050919050565b600081519050919050565b600081519050919050565b6000602082019050919050565b600082825260208201905092915050565b600082825260208201905092915050565b600082825260208201905092915050565b6000612c2d82612c94565b9150612c3883612c94565b925082821015612c4b57612c4a612d5b565b5b828203905092915050565b6000612c6182612c74565b9050919050565b60008115159050919050565b600073ffffffffffffffffffffffffffffffffffffffff82169050919050565b6000819050919050565b82818337600083830152505050565b60005b83811015612ccb578082015181840152602081019050612cb0565b83811115612cda576000848401525b50505050565b60006002820490506001821680612cf857607f821691505b60208210811415612d0c57612d0b612d8a565b5b50919050565b6000612d1d82612c94565b91507fffffffffffffffffffffffffffffffffffffffffffffffffffffffffffffffff821415612d5057612d4f612d5b565b5b600182019050919050565b7f4e487b7100000000000000000000000000000000000000000000000000000000600052601160045260246000fd5b7f4e487b7100000000000000000000000000000000000000000000000000000000600052602260045260246000fd5b7f4e487b7100000000000000000000000000000000000000000000000000000000600052604160045260246000fd5b6000601f19601f8301169050919050565b612e0281612c56565b8114612e0d57600080fd5b50565b612e1981612c68565b8114612e2457600080fd5b50565b612e3081612c94565b8114612e3b57600080fd5b5056fea2646970667358221220820c829930fd049ed19ff67420f1ccadc493bb51808803b32df9e96e03b4034264736f6c63430008000033",
  "immutableReferences": {},
  "source": "// SPDX-License-Identifier: MIT\r\npragma solidity ^0.8.0;\r\n\r\ncontract MilkChain {\r\n    struct Step {\r\n        string name;\r\n        address supervisor;\r\n        bool completed;\r\n        uint startTime;\r\n        uint endTime;\r\n        string location;\r\n        uint lotNumber;\r\n    }\r\n\r\n    Step[] public steps;\r\n    uint public currentStepIndex;\r\n    Step[] public completedSteps;\r\n    uint public currentLotNumber;\r\n\r\n    event StepCompleted(uint stepIndex, string name, uint startTime, uint endTime, uint lotNumber);\r\n    event ProcessReset(uint newLotNumber);\r\n\r\n    constructor() {\r\n        currentLotNumber = 1; // Initialize the lot number to 1\r\n        initializeSteps();\r\n    }\r\n\r\n    function initializeSteps() internal {\r\n        steps.push(Step(\"Raccolta\", address(0), false, 0, 0, \"\", currentLotNumber));\r\n        steps.push(Step(\"Trasporto\", address(0), false, 0, 0, \"\", currentLotNumber));\r\n        steps.push(Step(\"Lavorazione\", address(0), false, 0, 0, \"\", currentLotNumber));\r\n        steps.push(Step(\"Confezionamento\", address(0), false, 0, 0, \"\", currentLotNumber));\r\n        steps.push(Step(\"Distribuzione\", address(0), false, 0, 0, \"\", currentLotNumber));\r\n        currentStepIndex = 0;\r\n    }\r\n\r\n    function assignSupervisor(uint stepIndex, address supervisor) public {\r\n        require(stepIndex < steps.length, \"Step index out of range\");\r\n        steps[stepIndex].supervisor = supervisor;\r\n    }\r\n\r\n    function completeStep(string memory _location) public {\r\n        require(currentStepIndex < steps.length, \"All steps are already completed\");\r\n        Step storage step = steps[currentStepIndex];\r\n        require(msg.sender == step.supervisor, \"Only assigned supervisor can complete the step\");\r\n        step.completed = true;\r\n        step.endTime = block.timestamp;\r\n        \r\n        if (currentStepIndex == 0) {\r\n            step.startTime = block.timestamp;\r\n        } else {\r\n            step.startTime = steps[currentStepIndex - 1].endTime;\r\n        }\r\n\r\n        require(isReasonableLocation(_location), \"Location is not reasonable for this step\");\r\n\r\n        step.location = _location;\r\n        step.lotNumber = currentLotNumber;  // Assign current lot number to the step\r\n\r\n        completedSteps.push(step);\r\n\r\n        emit StepCompleted(currentStepIndex, step.name, step.startTime, step.endTime, step.lotNumber);\r\n        currentStepIndex++;\r\n\r\n        if (currentStepIndex >= steps.length) {\r\n            resetProcess();\r\n        }\r\n    }\r\n\r\n    function isReasonableLocation(string memory _location) internal pure returns (bool) {\r\n        return bytes(_location).length > 0; // Check that the location is not empty\r\n    }\r\n\r\n    function resetProcess() internal {\r\n        delete steps;\r\n        initializeSteps();\r\n        currentLotNumber++;\r\n        emit ProcessReset(currentLotNumber);\r\n    }\r\n\r\n    function getStepsLength() public view returns (uint) {\r\n        return steps.length;\r\n    }\r\n\r\n    function getStep(uint index) public view returns (string memory, address, bool, uint, uint, string memory, uint) {\r\n        require(index < steps.length, \"Step index out of range\");\r\n        Step storage step = steps[index];\r\n        return (step.name, step.supervisor, step.completed, step.startTime, step.endTime, step.location, step.lotNumber);\r\n    }\r\n\r\n    function getCompletedStepsLength() public view returns (uint) {\r\n        return completedSteps.length;\r\n    }\r\n\r\n    function getCompletedStep(uint index) public view returns (string memory, address, bool, uint, uint, string memory, uint) {\r\n        require(index < completedSteps.length, \"Completed step index out of range\");\r\n        Step storage step = completedSteps[index];\r\n        return (step.name, step.supervisor, step.completed, step.startTime, step.endTime, step.location, step.lotNumber);\r\n    }\r\n\r\n    function isProcessCompleted() public view returns (bool) {\r\n        return currentStepIndex >= steps.length;\r\n    }\r\n\r\n    function getCurrentLotNumber() public view returns (uint) {\r\n        return currentLotNumber;\r\n    }\r\n\r\n    function setStepName(uint index, string memory name) public {\r\n        require(index < steps.length, \"Step index out of range\");\r\n        steps[index].name = name;\r\n    }\r\n\r\n    function setStepSupervisor(uint index, address supervisor) public {\r\n        require(index < steps.length, \"Step index out of range\");\r\n        steps[index].supervisor = supervisor;\r\n    }\r\n\r\n    function setStepLocation(uint index, string memory location) public {\r\n        require(index < steps.length, \"Step index out of range\");\r\n        steps[index].location = location;\r\n    }\r\n\r\n    function setStepCompleted(uint index, bool completed) public {\r\n        require(index < steps.length, \"Step index out of range\");\r\n        steps[index].completed = completed;\r\n    }\r\n\r\n    function setStepStartTime(uint index, uint startTime) public {\r\n        require(index < steps.length, \"Step index out of range\");\r\n        steps[index].startTime = startTime;\r\n    }\r\n\r\n    function setStepEndTime(uint index, uint endTime) public {\r\n        require(index < steps.length, \"Step index out of range\");\r\n        steps[index].endTime = endTime;\r\n    }\r\n\r\n    function setLotNumber(uint index, uint lotNumber) public {\r\n        require(index < steps.length, \"Step index out of range\");\r\n        steps[index].lotNumber = lotNumber;\r\n    }\r\n\r\n    /**\r\n     * @notice Retrieves all completed steps for a given lot number.\r\n     * @param lotNumber The lot number to filter completed steps by.\r\n     * @return An array of completed steps for the given lot number.\r\n     */\r\n    function getLot(uint lotNumber) public view returns (Step[] memory) {\r\n        uint count = 0;\r\n        for (uint i = 0; i < completedSteps.length; i++) {\r\n            if (completedSteps[i].lotNumber == lotNumber) {\r\n                count++;\r\n            }\r\n        }\r\n\r\n        Step[] memory lotSteps = new Step[](count);\r\n        uint index = 0;\r\n        for (uint i = 0; i < completedSteps.length; i++) {\r\n            if (completedSteps[i].lotNumber == lotNumber) {\r\n                lotSteps[index] = completedSteps[i];\r\n                index++;\r\n            }\r\n        }\r\n        return lotSteps;\r\n    }\r\n}\r\n",
  "sourcePath": "C:\\Users\\gbeks\\IdeaProjects\\MilkChain\\backend\\contracts\\MilkChain.sol",
  "compiler": {
    "name": "solc",
    "version": "0.8.0+commit.c7dfd78e.Emscripten.clang"
  },
  "schemaVersion": "3.4.16",
  "updatedAt": "2024-06-26T14:58:51.461Z",
  "networkType": "ethereum",
  "devdoc": {
    "kind": "dev",
    "methods": {
      "getLot(uint256)": {
        "params": {
          "lotNumber": "The lot number to filter completed steps by."
        },
        "returns": {
          "_0": "An array of completed steps for the given lot number."
        }
      }
    },
    "version": 1
  },
  "userdoc": {
    "kind": "user",
    "methods": {
      "getLot(uint256)": {
        "notice": "Retrieves all completed steps for a given lot number."
      }
    },
    "version": 1
  }
}