{
  "contractName": "MilkProcessFactory",
  "abi": [
    {
      "inputs": [],
      "stateMutability": "nonpayable",
      "type": "constructor"
    },
    {
      "inputs": [
        {
          "internalType": "uint256",
          "name": "",
          "type": "uint256"
        }
      ],
      "name": "processes",
      "outputs": [
        {
          "internalType": "address",
          "name": "",
          "type": "address"
        }
      ],
      "stateMutability": "view",
      "type": "function",
      "constant": true
    },
    {
      "inputs": [
        {
          "internalType": "address",
          "name": "",
          "type": "address"
        }
      ],
      "name": "roles",
      "outputs": [
        {
          "internalType": "enum MilkProcessFactory.Role",
          "name": "",
          "type": "uint8"
        }
      ],
      "stateMutability": "view",
      "type": "function",
      "constant": true
    },
    {
      "inputs": [
        {
          "internalType": "uint256",
          "name": "",
          "type": "uint256"
        }
      ],
      "name": "users",
      "outputs": [
        {
          "internalType": "address",
          "name": "",
          "type": "address"
        }
      ],
      "stateMutability": "view",
      "type": "function",
      "constant": true
    },
    {
      "inputs": [
        {
          "internalType": "uint256",
          "name": "quantity",
          "type": "uint256"
        },
        {
          "internalType": "bool",
          "name": "isIntero",
          "type": "bool"
        }
      ],
      "name": "createNewProcess",
      "outputs": [
        {
          "internalType": "address[]",
          "name": "",
          "type": "address[]"
        }
      ],
      "stateMutability": "nonpayable",
      "type": "function"
    },
    {
      "inputs": [],
      "name": "getAllProcesses",
      "outputs": [
        {
          "internalType": "address[]",
          "name": "",
          "type": "address[]"
        }
      ],
      "stateMutability": "view",
      "type": "function",
      "constant": true
    },
    {
      "inputs": [],
      "name": "getAllRoles",
      "outputs": [
        {
          "internalType": "string[]",
          "name": "",
          "type": "string[]"
        },
        {
          "internalType": "address[]",
          "name": "",
          "type": "address[]"
        }
      ],
      "stateMutability": "view",
      "type": "function",
      "constant": true
    },
    {
      "inputs": [
        {
          "internalType": "address",
          "name": "account",
          "type": "address"
        }
      ],
      "name": "getRole",
      "outputs": [
        {
          "internalType": "enum MilkProcessFactory.Role",
          "name": "",
          "type": "uint8"
        }
      ],
      "stateMutability": "view",
      "type": "function",
      "constant": true
    },
    {
      "inputs": [
        {
          "internalType": "address",
          "name": "account",
          "type": "address"
        },
        {
          "internalType": "enum MilkProcessFactory.Role",
          "name": "role",
          "type": "uint8"
        }
      ],
      "name": "assignRole",
      "outputs": [],
      "stateMutability": "nonpayable",
      "type": "function"
    },
    {
      "inputs": [
        {
          "internalType": "address",
          "name": "account",
          "type": "address"
        }
      ],
      "name": "removeRole",
      "outputs": [],
      "stateMutability": "nonpayable",
      "type": "function"
    }
  ],
  "bytecode": "0x6080604052600060035534801561001557600080fd5b5060018060003373ffffffffffffffffffffffffffffffffffffffff1673ffffffffffffffffffffffffffffffffffffffff16815260200190815260200160002060006101000a81548160ff0219169083600381111561009e577f4e487b7100000000000000000000000000000000000000000000000000000000600052602160045260246000fd5b02179055506002339080600181540180825580915050600190039060005260206000200160009091909190916101000a81548173ffffffffffffffffffffffffffffffffffffffff021916908373ffffffffffffffffffffffffffffffffffffffff160217905550615af0806101156000396000f3fe60806040523480156200001157600080fd5b5060043610620000a05760003560e01c8063630a195b116200006f578063630a195b1462000167578063993746421462000187578063f2bcac3d14620001bd578063f52a8fa014620001e0578063fa91cc73146200020257620000a0565b8063365b98b214620000a55780634427673314620000db5780634762155d1462000111578063579e51c71462000131575b600080fd5b620000c36004803603810190620000bd919062001782565b62000238565b604051620000d2919062001a4a565b60405180910390f35b620000f96004803603810190620000f3919062001715565b62000278565b60405162000108919062001ac6565b60405180910390f35b6200012f600480360381019062000129919062001715565b620002ce565b005b6200014f600480360381019062000149919062001782565b62000589565b6040516200015e919062001a4a565b60405180910390f35b6200018560048036038101906200017f919062001741565b620005c9565b005b620001a560048036038101906200019f919062001715565b620007d3565b604051620001b4919062001ac6565b60405180910390f35b620001c7620007f3565b604051620001d792919062001a8b565b60405180910390f35b620001ea62000ebb565b604051620001f9919062001a67565b60405180910390f35b6200022060048036038101906200021a9190620017ae565b62000f4b565b6040516200022f919062001a67565b60405180910390f35b600281815481106200024957600080fd5b906000526020600020016000915054906101000a900473ffffffffffffffffffffffffffffffffffffffff1681565b6000600160008373ffffffffffffffffffffffffffffffffffffffff1673ffffffffffffffffffffffffffffffffffffffff16815260200190815260200160002060009054906101000a900460ff169050919050565b6001600381111562000309577f4e487b7100000000000000000000000000000000000000000000000000000000600052602160045260246000fd5b600160003373ffffffffffffffffffffffffffffffffffffffff1673ffffffffffffffffffffffffffffffffffffffff16815260200190815260200160002060009054906101000a900460ff1660038111156200038f577f4e487b7100000000000000000000000000000000000000000000000000000000600052602160045260246000fd5b14620003d2576040517f08c379a0000000000000000000000000000000000000000000000000000000008152600401620003c99062001b05565b60405180910390fd5b600160038111156200040d577f4e487b7100000000000000000000000000000000000000000000000000000000600052602160045260246000fd5b600160008373ffffffffffffffffffffffffffffffffffffffff1673ffffffffffffffffffffffffffffffffffffffff16815260200190815260200160002060009054906101000a900460ff16600381111562000493577f4e487b7100000000000000000000000000000000000000000000000000000000600052602160045260246000fd5b141580620004aa57506001620004a862001226565b115b620004ec576040517f08c379a0000000000000000000000000000000000000000000000000000000008152600401620004e39062001ae3565b60405180910390fd5b6000600160008373ffffffffffffffffffffffffffffffffffffffff1673ffffffffffffffffffffffffffffffffffffffff16815260200190815260200160002060006101000a81548160ff0219169083600381111562000576577f4e487b7100000000000000000000000000000000000000000000000000000000600052602160045260246000fd5b021790555062000586816200139a565b50565b600081815481106200059a57600080fd5b906000526020600020016000915054906101000a900473ffffffffffffffffffffffffffffffffffffffff1681565b6001600381111562000604577f4e487b7100000000000000000000000000000000000000000000000000000000600052602160045260246000fd5b600160003373ffffffffffffffffffffffffffffffffffffffff1673ffffffffffffffffffffffffffffffffffffffff16815260200190815260200160002060009054906101000a900460ff1660038111156200068a577f4e487b7100000000000000000000000000000000000000000000000000000000600052602160045260246000fd5b14620006cd576040517f08c379a0000000000000000000000000000000000000000000000000000000008152600401620006c49062001b05565b60405180910390fd5b80600160008473ffffffffffffffffffffffffffffffffffffffff1673ffffffffffffffffffffffffffffffffffffffff16815260200190815260200160002060006101000a81548160ff0219169083600381111562000756577f4e487b7100000000000000000000000000000000000000000000000000000000600052602160045260246000fd5b02179055506200076682620015cf565b620007cf576002829080600181540180825580915050600190039060005260206000200160009091909190916101000a81548173ffffffffffffffffffffffffffffffffffffffff021916908373ffffffffffffffffffffffffffffffffffffffff1602179055505b5050565b60016020528060005260406000206000915054906101000a900460ff1681565b606080600060028054905067ffffffffffffffff8111156200083e577f4e487b7100000000000000000000000000000000000000000000000000000000600052604160045260246000fd5b6040519080825280602002602001820160405280156200087357816020015b60608152602001906001900390816200085d5790505b50905060005b60028054905081101562000e245760016003811115620008c2577f4e487b7100000000000000000000000000000000000000000000000000000000600052602160045260246000fd5b600160006002848154811062000901577f4e487b7100000000000000000000000000000000000000000000000000000000600052603260045260246000fd5b9060005260206000200160009054906101000a900473ffffffffffffffffffffffffffffffffffffffff1673ffffffffffffffffffffffffffffffffffffffff1673ffffffffffffffffffffffffffffffffffffffff16815260200190815260200160002060009054906101000a900460ff166003811115620009ad577f4e487b7100000000000000000000000000000000000000000000000000000000600052602160045260246000fd5b141562000a35576040518060400160405280600181526020017f310000000000000000000000000000000000000000000000000000000000000081525082828151811062000a24577f4e487b7100000000000000000000000000000000000000000000000000000000600052603260045260246000fd5b602002602001018190525062000e0e565b6002600381111562000a70577f4e487b7100000000000000000000000000000000000000000000000000000000600052602160045260246000fd5b600160006002848154811062000aaf577f4e487b7100000000000000000000000000000000000000000000000000000000600052603260045260246000fd5b9060005260206000200160009054906101000a900473ffffffffffffffffffffffffffffffffffffffff1673ffffffffffffffffffffffffffffffffffffffff1673ffffffffffffffffffffffffffffffffffffffff16815260200190815260200160002060009054906101000a900460ff16600381111562000b5b577f4e487b7100000000000000000000000000000000000000000000000000000000600052602160045260246000fd5b141562000be3576040518060400160405280600181526020017f320000000000000000000000000000000000000000000000000000000000000081525082828151811062000bd2577f4e487b7100000000000000000000000000000000000000000000000000000000600052603260045260246000fd5b602002602001018190525062000e0d565b60038081111562000c1d577f4e487b7100000000000000000000000000000000000000000000000000000000600052602160045260246000fd5b600160006002848154811062000c5c577f4e487b7100000000000000000000000000000000000000000000000000000000600052603260045260246000fd5b9060005260206000200160009054906101000a900473ffffffffffffffffffffffffffffffffffffffff1673ffffffffffffffffffffffffffffffffffffffff1673ffffffffffffffffffffffffffffffffffffffff16815260200190815260200160002060009054906101000a900460ff16600381111562000d08577f4e487b7100000000000000000000000000000000000000000000000000000000600052602160045260246000fd5b141562000d90576040518060400160405280600181526020017f330000000000000000000000000000000000000000000000000000000000000081525082828151811062000d7f577f4e487b7100000000000000000000000000000000000000000000000000000000600052603260045260246000fd5b602002602001018190525062000e0c565b6040518060400160405280600181526020017f300000000000000000000000000000000000000000000000000000000000000081525082828151811062000e00577f4e487b7100000000000000000000000000000000000000000000000000000000600052603260045260246000fd5b60200260200101819052505b5b5b808062000e1b9062001d44565b91505062000879565b508060028080548060200260200160405190810160405280929190818152602001828054801562000eab57602002820191906000526020600020905b8160009054906101000a900473ffffffffffffffffffffffffffffffffffffffff1673ffffffffffffffffffffffffffffffffffffffff168152602001906001019080831162000e60575b5050505050905092509250509091565b6060600080548060200260200160405190810160405280929190818152602001828054801562000f4157602002820191906000526020600020905b8160009054906101000a900473ffffffffffffffffffffffffffffffffffffffff1673ffffffffffffffffffffffffffffffffffffffff168152602001906001019080831162000ef6575b5050505050905090565b60606001600381111562000f88577f4e487b7100000000000000000000000000000000000000000000000000000000600052602160045260246000fd5b600160003373ffffffffffffffffffffffffffffffffffffffff1673ffffffffffffffffffffffffffffffffffffffff16815260200190815260200160002060009054906101000a900460ff1660038111156200100e577f4e487b7100000000000000000000000000000000000000000000000000000000600052602160045260246000fd5b1462001051576040517f08c379a0000000000000000000000000000000000000000000000000000000008152600401620010489062001b05565b60405180910390fd5b60008367ffffffffffffffff81111562001094577f4e487b7100000000000000000000000000000000000000000000000000000000600052604160045260246000fd5b604051908082528060200260200182016040528015620010c35781602001602082028036833780820191505090505b50905060005b848110156200121b576001600354620010e3919062001c03565b60038190555060006003543086604051620010fe90620016ab565b6200110c9392919062001b27565b604051809103906000f08015801562001129573d6000803e3d6000fd5b5090506000819080600181540180825580915050600190039060005260206000200160009091909190916101000a81548173ffffffffffffffffffffffffffffffffffffffff021916908373ffffffffffffffffffffffffffffffffffffffff16021790555080838381518110620011ca577f4e487b7100000000000000000000000000000000000000000000000000000000600052603260045260246000fd5b602002602001019073ffffffffffffffffffffffffffffffffffffffff16908173ffffffffffffffffffffffffffffffffffffffff1681525050508080620012129062001d44565b915050620010c9565b508091505092915050565b6000806000905060005b60028054905081101562001392576001600381111562001279577f4e487b7100000000000000000000000000000000000000000000000000000000600052602160045260246000fd5b6001600060028481548110620012b8577f4e487b7100000000000000000000000000000000000000000000000000000000600052603260045260246000fd5b9060005260206000200160009054906101000a900473ffffffffffffffffffffffffffffffffffffffff1673ffffffffffffffffffffffffffffffffffffffff1673ffffffffffffffffffffffffffffffffffffffff16815260200190815260200160002060009054906101000a900460ff16600381111562001364577f4e487b7100000000000000000000000000000000000000000000000000000000600052602160045260246000fd5b14156200137c578180620013789062001d44565b9250505b8080620013899062001d44565b91505062001230565b508091505090565b60005b600280549050811015620015cb578173ffffffffffffffffffffffffffffffffffffffff1660028281548110620013fd577f4e487b7100000000000000000000000000000000000000000000000000000000600052603260045260246000fd5b9060005260206000200160009054906101000a900473ffffffffffffffffffffffffffffffffffffffff1673ffffffffffffffffffffffffffffffffffffffff161415620015b557600260016002805490506200145b919062001c60565b8154811062001493577f4e487b7100000000000000000000000000000000000000000000000000000000600052603260045260246000fd5b9060005260206000200160009054906101000a900473ffffffffffffffffffffffffffffffffffffffff1660028281548110620014f9577f4e487b7100000000000000000000000000000000000000000000000000000000600052603260045260246000fd5b9060005260206000200160006101000a81548173ffffffffffffffffffffffffffffffffffffffff021916908373ffffffffffffffffffffffffffffffffffffffff16021790555060028054806200157a577f4e487b7100000000000000000000000000000000000000000000000000000000600052603160045260246000fd5b6001900381819060005260206000200160006101000a81549073ffffffffffffffffffffffffffffffffffffffff02191690559055620015cb565b8080620015c29062001d44565b9150506200139d565b5050565b600080600090505b600280549050811015620016a0578273ffffffffffffffffffffffffffffffffffffffff166002828154811062001637577f4e487b7100000000000000000000000000000000000000000000000000000000600052603260045260246000fd5b9060005260206000200160009054906101000a900473ffffffffffffffffffffffffffffffffffffffff1673ffffffffffffffffffffffffffffffffffffffff1614156200168a576001915050620016a6565b8080620016979062001d44565b915050620015d7565b50600090505b919050565b613c438062001e7883390190565b600081359050620016ca8162001e18565b92915050565b600081359050620016e18162001e32565b92915050565b600081359050620016f88162001e4c565b92915050565b6000813590506200170f8162001e5d565b92915050565b6000602082840312156200172857600080fd5b60006200173884828501620016b9565b91505092915050565b600080604083850312156200175557600080fd5b60006200176585828601620016b9565b92505060206200177885828601620016e7565b9150509250929050565b6000602082840312156200179557600080fd5b6000620017a584828501620016fe565b91505092915050565b60008060408385031215620017c257600080fd5b6000620017d285828601620016fe565b9250506020620017e585828601620016d0565b9150509250929050565b6000620017fd83836200181f565b60208301905092915050565b60006200181783836200194e565b905092915050565b6200182a8162001c9b565b82525050565b6200183b8162001c9b565b82525050565b60006200184e8262001b84565b6200185a818562001bbf565b9350620018678362001b64565b8060005b838110156200189e578151620018828882620017ef565b97506200188f8362001ba5565b9250506001810190506200186b565b5085935050505092915050565b6000620018b88262001b8f565b620018c4818562001bd0565b935083602082028501620018d88562001b74565b8060005b858110156200191a5784840389528151620018f8858262001809565b9450620019058362001bb2565b925060208a01995050600181019050620018dc565b50829750879550505050505092915050565b620019378162001caf565b82525050565b620019488162001cfa565b82525050565b60006200195b8262001b9a565b62001967818562001be1565b93506200197981856020860162001d0e565b620019848162001df0565b840191505092915050565b60006200199e601c8362001bf2565b91507f43616e6e6f742072656d6f766520746865206c6173742061646d696e000000006000830152602082019050919050565b6000620019e060228362001bf2565b91507f4f6e6c792061646d696e2063616e20706572666f726d2074686973206163746960008301527f6f6e0000000000000000000000000000000000000000000000000000000000006020830152604082019050919050565b62001a448162001cf0565b82525050565b600060208201905062001a61600083018462001830565b92915050565b6000602082019050818103600083015262001a83818462001841565b905092915050565b6000604082019050818103600083015262001aa78185620018ab565b9050818103602083015262001abd818462001841565b90509392505050565b600060208201905062001add60008301846200193d565b92915050565b6000602082019050818103600083015262001afe816200198f565b9050919050565b6000602082019050818103600083015262001b2081620019d1565b9050919050565b600060608201905062001b3e600083018662001a39565b62001b4d602083018562001830565b62001b5c60408301846200192c565b949350505050565b6000819050602082019050919050565b6000819050602082019050919050565b600081519050919050565b600081519050919050565b600081519050919050565b6000602082019050919050565b6000602082019050919050565b600082825260208201905092915050565b600082825260208201905092915050565b600082825260208201905092915050565b600082825260208201905092915050565b600062001c108262001cf0565b915062001c1d8362001cf0565b9250827fffffffffffffffffffffffffffffffffffffffffffffffffffffffffffffffff0382111562001c555762001c5462001d92565b5b828201905092915050565b600062001c6d8262001cf0565b915062001c7a8362001cf0565b92508282101562001c905762001c8f62001d92565b5b828203905092915050565b600062001ca88262001cd0565b9050919050565b60008115159050919050565b600081905062001ccb8262001e01565b919050565b600073ffffffffffffffffffffffffffffffffffffffff82169050919050565b6000819050919050565b600062001d078262001cbb565b9050919050565b60005b8381101562001d2e57808201518184015260208101905062001d11565b8381111562001d3e576000848401525b50505050565b600062001d518262001cf0565b91507fffffffffffffffffffffffffffffffffffffffffffffffffffffffffffffffff82141562001d875762001d8662001d92565b5b600182019050919050565b7f4e487b7100000000000000000000000000000000000000000000000000000000600052601160045260246000fd5b7f4e487b7100000000000000000000000000000000000000000000000000000000600052602160045260246000fd5b6000601f19601f8301169050919050565b6004811062001e155762001e1462001dc1565b5b50565b62001e238162001c9b565b811462001e2f57600080fd5b50565b62001e3d8162001caf565b811462001e4957600080fd5b50565b6004811062001e5a57600080fd5b50565b62001e688162001cf0565b811462001e7457600080fd5b5056fe60806040523480156200001157600080fd5b5060405162003c4338038062003c4383398181016040528101906200003791906200183a565b8260028190555081600360006101000a81548173ffffffffffffffffffffffffffffffffffffffff021916908373ffffffffffffffffffffffffffffffffffffffff1602179055506000600360146101000a81548160ff02191690831515021790555080600360156101000a81548160ff021916908315150217905550620000c46200011e60201b60201c565b426000808154811062000100577f4e487b7100000000000000000000000000000000000000000000000000000000600052603260045260246000fd5b9060005260206000209060070201600201819055505050506200198d565b60006040518061010001604052806040518060400160405280600881526020017f526163636f6c74610000000000000000000000000000000000000000000000008152508152602001600073ffffffffffffffffffffffffffffffffffffffff1681526020016000151581526020016000815260200160008152602001604051806020016040528060008152508152602001600254815260200160001515815250908060018154018082558091505060019003906000526020600020906007020160009091909190915060008201518160000190805190602001906200020692919062001745565b5060208201518160010160006101000a81548173ffffffffffffffffffffffffffffffffffffffff021916908373ffffffffffffffffffffffffffffffffffffffff16021790555060408201518160010160146101000a81548160ff021916908315150217905550606082015181600201556080820151816003015560a0820151816004019080519060200190620002a092919062001745565b5060c0820151816005015560e08201518160060160006101000a81548160ff021916908315150217905550505060006040518061010001604052806040518060400160405280600981526020017f54726173706f72746f00000000000000000000000000000000000000000000008152508152602001600073ffffffffffffffffffffffffffffffffffffffff168152602001600015158152602001600081526020016000815260200160405180602001604052806000815250815260200160025481526020016000151581525090806001815401808255809150506001900390600052602060002090600702016000909190919091506000820151816000019080519060200190620003b592919062001745565b5060208201518160010160006101000a81548173ffffffffffffffffffffffffffffffffffffffff021916908373ffffffffffffffffffffffffffffffffffffffff16021790555060408201518160010160146101000a81548160ff021916908315150217905550606082015181600201556080820151816003015560a08201518160040190805190602001906200044f92919062001745565b5060c0820151816005015560e08201518160060160006101000a81548160ff021916908315150217905550505060006040518061010001604052806040518060400160405280600881526020017f50756c69747572610000000000000000000000000000000000000000000000008152508152602001600073ffffffffffffffffffffffffffffffffffffffff1681526020016000151581526020016000815260200160008152602001604051806020016040528060008152508152602001600254815260200160001515815250908060018154018082558091505060019003906000526020600020906007020160009091909190915060008201518160000190805190602001906200056492919062001745565b5060208201518160010160006101000a81548173ffffffffffffffffffffffffffffffffffffffff021916908373ffffffffffffffffffffffffffffffffffffffff16021790555060408201518160010160146101000a81548160ff021916908315150217905550606082015181600201556080820151816003015560a0820151816004019080519060200190620005fe92919062001745565b5060c0820151816005015560e08201518160060160006101000a81548160ff021916908315150217905550505060006040518061010001604052806040518060400160405280601181526020017f5374616e64617264697a7a617a696f6e650000000000000000000000000000008152508152602001600073ffffffffffffffffffffffffffffffffffffffff1681526020016000151581526020016000815260200160008152602001604051806020016040528060008152508152602001600254815260200160001515815250908060018154018082558091505060019003906000526020600020906007020160009091909190915060008201518160000190805190602001906200071392919062001745565b5060208201518160010160006101000a81548173ffffffffffffffffffffffffffffffffffffffff021916908373ffffffffffffffffffffffffffffffffffffffff16021790555060408201518160010160146101000a81548160ff021916908315150217905550606082015181600201556080820151816003015560a0820151816004019080519060200190620007ad92919062001745565b5060c0820151816005015560e08201518160060160006101000a81548160ff021916908315150217905550505060006040518061010001604052806040518060400160405280601081526020017f4f6d6f67656e65697a7a617a696f6e65000000000000000000000000000000008152508152602001600073ffffffffffffffffffffffffffffffffffffffff168152602001600015158152602001600081526020016000815260200160405180602001604052806000815250815260200160025481526020016000151581525090806001815401808255809150506001900390600052602060002090600702016000909190919091506000820151816000019080519060200190620008c292919062001745565b5060208201518160010160006101000a81548173ffffffffffffffffffffffffffffffffffffffff021916908373ffffffffffffffffffffffffffffffffffffffff16021790555060408201518160010160146101000a81548160ff021916908315150217905550606082015181600201556080820151816003015560a08201518160040190805190602001906200095c92919062001745565b5060c0820151816005015560e08201518160060160006101000a81548160ff0219169083151502179055505050600360159054906101000a900460ff161562000b545760006040518061010001604052806040518060400160405280600f81526020017f506173746f72697a7a617a696f6e6500000000000000000000000000000000008152508152602001600073ffffffffffffffffffffffffffffffffffffffff16815260200160001515815260200160008152602001600081526020016040518060200160405280600081525081526020016002548152602001600015158152509080600181540180825580915050600190039060005260206000209060070201600090919091909150600082015181600001908051906020019062000a8792919062001745565b5060208201518160010160006101000a81548173ffffffffffffffffffffffffffffffffffffffff021916908373ffffffffffffffffffffffffffffffffffffffff16021790555060408201518160010160146101000a81548160ff021916908315150217905550606082015181600201556080820151816003015560a082015181600401908051906020019062000b2192919062001745565b5060c0820151816005015560e08201518160060160006101000a81548160ff021916908315150217905550505062000d04565b60006040518061010001604052806040518060400160405280600f81526020017f53746572696c697a7a617a696f6e6500000000000000000000000000000000008152508152602001600073ffffffffffffffffffffffffffffffffffffffff16815260200160001515815260200160008152602001600081526020016040518060200160405280600081525081526020016002548152602001600015158152509080600181540180825580915050600190039060005260206000209060070201600090919091909150600082015181600001908051906020019062000c3c92919062001745565b5060208201518160010160006101000a81548173ffffffffffffffffffffffffffffffffffffffff021916908373ffffffffffffffffffffffffffffffffffffffff16021790555060408201518160010160146101000a81548160ff021916908315150217905550606082015181600201556080820151816003015560a082015181600401908051906020019062000cd692919062001745565b5060c0820151816005015560e08201518160060160006101000a81548160ff02191690831515021790555050505b60006040518061010001604052806040518060400160405280600f81526020017f436f6e66657a696f6e616d656e746f00000000000000000000000000000000008152508152602001600073ffffffffffffffffffffffffffffffffffffffff16815260200160001515815260200160008152602001600081526020016040518060200160405280600081525081526020016002548152602001600015158152509080600181540180825580915050600190039060005260206000209060070201600090919091909150600082015181600001908051906020019062000dec92919062001745565b5060208201518160010160006101000a81548173ffffffffffffffffffffffffffffffffffffffff021916908373ffffffffffffffffffffffffffffffffffffffff16021790555060408201518160010160146101000a81548160ff021916908315150217905550606082015181600201556080820151816003015560a082015181600401908051906020019062000e8692919062001745565b5060c0820151816005015560e08201518160060160006101000a81548160ff0219169083151502179055505050600360159054906101000a900460ff16156200122d5760006040518061010001604052806040518060400160405280601681526020017f53746f6363616767696f20726566726967657261746f000000000000000000008152508152602001600073ffffffffffffffffffffffffffffffffffffffff16815260200160001515815260200160008152602001600081526020016040518060200160405280600081525081526020016002548152602001600015158152509080600181540180825580915050600190039060005260206000209060070201600090919091909150600082015181600001908051906020019062000fb192919062001745565b5060208201518160010160006101000a81548173ffffffffffffffffffffffffffffffffffffffff021916908373ffffffffffffffffffffffffffffffffffffffff16021790555060408201518160010160146101000a81548160ff021916908315150217905550606082015181600201556080820151816003015560a08201518160040190805190602001906200104b92919062001745565b5060c0820151816005015560e08201518160060160006101000a81548160ff021916908315150217905550505060006040518061010001604052806040518060400160405280601981526020017f44697374726962757a696f6e65207265667269676572617461000000000000008152508152602001600073ffffffffffffffffffffffffffffffffffffffff1681526020016000151581526020016000815260200160008152602001604051806020016040528060008152508152602001600254815260200160001515815250908060018154018082558091505060019003906000526020600020906007020160009091909190915060008201518160000190805190602001906200116092919062001745565b5060208201518160010160006101000a81548173ffffffffffffffffffffffffffffffffffffffff021916908373ffffffffffffffffffffffffffffffffffffffff16021790555060408201518160010160146101000a81548160ff021916908315150217905550606082015181600201556080820151816003015560a0820151816004019080519060200190620011fa92919062001745565b5060c0820151816005015560e08201518160060160006101000a81548160ff02191690831515021790555050506200158c565b60006040518061010001604052806040518060400160405280600a81526020017f53746f6363616767696f000000000000000000000000000000000000000000008152508152602001600073ffffffffffffffffffffffffffffffffffffffff1681526020016000151581526020016000815260200160008152602001604051806020016040528060008152508152602001600254815260200160001515815250908060018154018082558091505060019003906000526020600020906007020160009091909190915060008201518160000190805190602001906200131592919062001745565b5060208201518160010160006101000a81548173ffffffffffffffffffffffffffffffffffffffff021916908373ffffffffffffffffffffffffffffffffffffffff16021790555060408201518160010160146101000a81548160ff021916908315150217905550606082015181600201556080820151816003015560a0820151816004019080519060200190620013af92919062001745565b5060c0820151816005015560e08201518160060160006101000a81548160ff021916908315150217905550505060006040518061010001604052806040518060400160405280600d81526020017f44697374726962757a696f6e65000000000000000000000000000000000000008152508152602001600073ffffffffffffffffffffffffffffffffffffffff168152602001600015158152602001600081526020016000815260200160405180602001604052806000815250815260200160025481526020016000151581525090806001815401808255809150506001900390600052602060002090600702016000909190919091506000820151816000019080519060200190620014c492919062001745565b5060208201518160010160006101000a81548173ffffffffffffffffffffffffffffffffffffffff021916908373ffffffffffffffffffffffffffffffffffffffff16021790555060408201518160010160146101000a81548160ff021916908315150217905550606082015181600201556080820151816003015560a08201518160040190805190602001906200155e92919062001745565b5060c0820151816005015560e08201518160060160006101000a81548160ff02191690831515021790555050505b60006040518061010001604052806040518060400160405280600881526020017f436f6e7365676e610000000000000000000000000000000000000000000000008152508152602001600073ffffffffffffffffffffffffffffffffffffffff1681526020016000151581526020016000815260200160008152602001604051806020016040528060008152508152602001600254815260200160001515815250908060018154018082558091505060019003906000526020600020906007020160009091909190915060008201518160000190805190602001906200167492919062001745565b5060208201518160010160006101000a81548173ffffffffffffffffffffffffffffffffffffffff021916908373ffffffffffffffffffffffffffffffffffffffff16021790555060408201518160010160146101000a81548160ff021916908315150217905550606082015181600201556080820151816003015560a08201518160040190805190602001906200170e92919062001745565b5060c0820151816005015560e08201518160060160006101000a81548160ff02191690831515021790555050506000600181905550565b8280546200175390620018da565b90600052602060002090601f016020900481019282620017775760008555620017c3565b82601f106200179257805160ff1916838001178555620017c3565b82800160010185558215620017c3579182015b82811115620017c2578251825591602001919060010190620017a5565b5b509050620017d29190620017d6565b5090565b5b80821115620017f1576000816000905550600101620017d7565b5090565b60008151905062001806816200193f565b92915050565b6000815190506200181d8162001959565b92915050565b600081519050620018348162001973565b92915050565b6000806000606084860312156200185057600080fd5b6000620018608682870162001823565b93505060206200187386828701620017f5565b925050604062001886868287016200180c565b9150509250925092565b60006200189d82620018b0565b9050919050565b60008115159050919050565b600073ffffffffffffffffffffffffffffffffffffffff82169050919050565b6000819050919050565b60006002820490506001821680620018f357607f821691505b602082108114156200190a576200190962001910565b5b50919050565b7f4e487b7100000000000000000000000000000000000000000000000000000000600052602260045260246000fd5b6200194a8162001890565b81146200195657600080fd5b50565b6200196481620018a4565b81146200197057600080fd5b50565b6200197e81620018d0565b81146200198a57600080fd5b50565b6122a6806200199d6000396000f3fe608060405234801561001057600080fd5b50600436106100cf5760003560e01c80637217e0b91161008c5780639597fe9f116100665780639597fe9f146101e1578063c45a0155146101ff578063d7d7e9fa1461021d578063f416334014610239576100cf565b80637217e0b91461017057806375b63460146101a75780638b1659f5146101c3576100cf565b8063040c22c0146100d45780631846c134146100f0578063334f45ec1461010e5780635da65ada1461012c5780635f206b321461014a57806366ea962414610166575b600080fd5b6100ee60048036038101906100e991906117eb565b610257565b005b6100f86105f5565b6040516101059190611cf6565b60405180910390f35b610116610608565b6040516101239190611e7d565b60405180910390f35b61013461060e565b6040516101419190611cd4565b60405180910390f35b610164600480360381019061015f919061176e565b61083c565b005b61016e610a24565b005b61018a6004803603810190610185919061182c565b610d58565b60405161019e989796959493929190611d11565b60405180910390f35b6101c160048036038101906101bc9190611745565b610efa565b005b6101cb6111c6565b6040516101d89190611cf6565b60405180910390f35b6101e96111d7565b6040516101f69190611e7d565b60405180910390f35b6102076111dd565b6040516102149190611cb9565b60405180910390f35b61023760048036038101906102329190611704565b611203565b005b6102416114fc565b60405161024e9190611cf6565b60405180910390f35b6000600360009054906101000a900473ffffffffffffffffffffffffffffffffffffffff16905060008173ffffffffffffffffffffffffffffffffffffffff166344276733336040518263ffffffff1660e01b81526004016102b99190611cb9565b60206040518083038186803b1580156102d157600080fd5b505afa1580156102e5573d6000803e3d6000fd5b505050506040513d601f19601f8201168201806040525081019061030991906117c2565b905060026003811115610345577f4e487b7100000000000000000000000000000000000000000000000000000000600052602160045260246000fd5b81600381111561037e577f4e487b7100000000000000000000000000000000000000000000000000000000600052602160045260246000fd5b146103be576040517f08c379a00000000000000000000000000000000000000000000000000000000081526004016103b590611d9d565b60405180910390fd5b600360149054906101000a900460ff161561040e576040517f08c379a000000000000000000000000000000000000000000000000000000000815260040161040590611e3d565b60405180910390fd5b60008054905060015410610457576040517f08c379a000000000000000000000000000000000000000000000000000000000815260040161044e90611e5d565b60405180910390fd5b60008060015481548110610494577f4e487b7100000000000000000000000000000000000000000000000000000000600052603260045260246000fd5b906000526020600020906007020190508060010160009054906101000a900473ffffffffffffffffffffffffffffffffffffffff1673ffffffffffffffffffffffffffffffffffffffff163373ffffffffffffffffffffffffffffffffffffffff1614610536576040517f08c379a000000000000000000000000000000000000000000000000000000000815260040161052d90611dfd565b60405180910390fd5b60018160010160146101000a81548160ff0219169083151502179055504281600301819055508381600401908051906020019061057492919061150f565b506001600081548092919061058890612047565b919050555060008054905060015410156105ef57426000600154815481106105d9577f4e487b7100000000000000000000000000000000000000000000000000000000600052603260045260246000fd5b9060005260206000209060070201600201819055505b50505050565b600360159054906101000a900460ff1681565b60015481565b60606000805480602002602001604051908101604052809291908181526020016000905b8282101561083357838290600052602060002090600702016040518061010001604052908160008201805461066690612015565b80601f016020809104026020016040519081016040528092919081815260200182805461069290612015565b80156106df5780601f106106b4576101008083540402835291602001916106df565b820191906000526020600020905b8154815290600101906020018083116106c257829003601f168201915b505050505081526020016001820160009054906101000a900473ffffffffffffffffffffffffffffffffffffffff1673ffffffffffffffffffffffffffffffffffffffff1673ffffffffffffffffffffffffffffffffffffffff1681526020016001820160149054906101000a900460ff16151515158152602001600282015481526020016003820154815260200160048201805461077d90612015565b80601f01602080910402602001604051908101604052809291908181526020018280546107a990612015565b80156107f65780601f106107cb576101008083540402835291602001916107f6565b820191906000526020600020905b8154815290600101906020018083116107d957829003601f168201915b50505050508152602001600582015481526020016006820160009054906101000a900460ff16151515158152505081526020019060010190610632565b50505050905090565b60008060015481548110610879577f4e487b7100000000000000000000000000000000000000000000000000000000600052603260045260246000fd5b9060005260206000209060070201905082156109ac5760018160010160146101000a81548160ff021916908315150217905550428160030181905550600960015414156108de57818160040190805190602001906108d892919061150f565b5061092d565b6040518060400160405280602081526020017f50726f6365647572612061646567756174612061676c69207374616e6461726481525081600401908051906020019061092b92919061150f565b505b6001600081548092919061094090612047565b919050555060008054905060015410156109a75742600060015481548110610991577f4e487b7100000000000000000000000000000000000000000000000000000000600052603260045260246000fd5b9060005260206000209060070201600201819055505b610a1f565b60018160060160006101000a81548160ff0219169083151502179055506001600360146101000a81548160ff0219169083151502179055504281600301819055506040518060600160405280603d81526020016121c3603d9139816004019080519060200190610a1d92919061150f565b505b505050565b6000600360009054906101000a900473ffffffffffffffffffffffffffffffffffffffff16905060008173ffffffffffffffffffffffffffffffffffffffff166344276733336040518263ffffffff1660e01b8152600401610a869190611cb9565b60206040518083038186803b158015610a9e57600080fd5b505afa158015610ab2573d6000803e3d6000fd5b505050506040513d601f19601f82011682018060405250810190610ad691906117c2565b905060026003811115610b12577f4e487b7100000000000000000000000000000000000000000000000000000000600052602160045260246000fd5b816003811115610b4b577f4e487b7100000000000000000000000000000000000000000000000000000000600052602160045260246000fd5b14610b8b576040517f08c379a0000000000000000000000000000000000000000000000000000000008152600401610b8290611d9d565b60405180910390fd5b600360149054906101000a900460ff1615610bdb576040517f08c379a0000000000000000000000000000000000000000000000000000000008152600401610bd290611e3d565b60405180910390fd5b60008054905060015410610c24576040517f08c379a0000000000000000000000000000000000000000000000000000000008152600401610c1b90611e5d565b60405180910390fd5b60008060015481548110610c61577f4e487b7100000000000000000000000000000000000000000000000000000000600052603260045260246000fd5b906000526020600020906007020190508060010160009054906101000a900473ffffffffffffffffffffffffffffffffffffffff1673ffffffffffffffffffffffffffffffffffffffff163373ffffffffffffffffffffffffffffffffffffffff1614610d03576040517f08c379a0000000000000000000000000000000000000000000000000000000008152600401610cfa90611dbd565b60405180910390fd5b60018160060160006101000a81548160ff0219169083151502179055506001600360146101000a81548160ff02191690831515021790555060016000815480929190610d4e90612047565b9190505550505050565b60008181548110610d6857600080fd5b9060005260206000209060070201600091509050806000018054610d8b90612015565b80601f0160208091040260200160405190810160405280929190818152602001828054610db790612015565b8015610e045780601f10610dd957610100808354040283529160200191610e04565b820191906000526020600020905b815481529060010190602001808311610de757829003601f168201915b5050505050908060010160009054906101000a900473ffffffffffffffffffffffffffffffffffffffff16908060010160149054906101000a900460ff1690806002015490806003015490806004018054610e5e90612015565b80601f0160208091040260200160405190810160405280929190818152602001828054610e8a90612015565b8015610ed75780601f10610eac57610100808354040283529160200191610ed7565b820191906000526020600020905b815481529060010190602001808311610eba57829003601f168201915b5050505050908060050154908060060160009054906101000a900460ff16905088565b600360149054906101000a900460ff1615610f4a576040517f08c379a0000000000000000000000000000000000000000000000000000000008152600401610f4190611e3d565b60405180910390fd5b60008060015481548110610f87577f4e487b7100000000000000000000000000000000000000000000000000000000600052603260045260246000fd5b9060005260206000209060070201905081156110905760018160010160146101000a81548160ff0219169083151502179055504281600301819055506040518060400160405280602081526020017f50726f6365647572612061646567756174612061676c69207374616e6461726481525081600401908051906020019061101092919061150f565b506001600081548092919061102490612047565b9190505550600080549050600154101561108b5742600060015481548110611075577f4e487b7100000000000000000000000000000000000000000000000000000000600052603260045260246000fd5b9060005260206000209060070201600201819055505b6111c2565b60018160060160006101000a81548160ff0219169083151502179055506001600360146101000a81548160ff021916908315150217905550428160030181905550600180541415611111576040518060600160405280603f8152602001612184603f913981600401908051906020019061110b92919061150f565b506111c1565b600760015414801561112f5750600360159054906101000a900460ff165b1561116a5760405180606001604052806032815260200161223f6032913981600401908051906020019061116492919061150f565b506111c0565b60086001541480156111885750600360159054906101000a900460ff165b156111bf576040518060600160405280603f8152602001612200603f91398160040190805190602001906111bd92919061150f565b505b5b5b5b5050565b600080805490506001541015905090565b60025481565b600360009054906101000a900473ffffffffffffffffffffffffffffffffffffffff1681565b6000600360009054906101000a900473ffffffffffffffffffffffffffffffffffffffff16905060008173ffffffffffffffffffffffffffffffffffffffff166344276733336040518263ffffffff1660e01b81526004016112659190611cb9565b60206040518083038186803b15801561127d57600080fd5b505afa158015611291573d6000803e3d6000fd5b505050506040513d601f19601f820116820180604052508101906112b591906117c2565b9050600160038111156112f1577f4e487b7100000000000000000000000000000000000000000000000000000000600052602160045260246000fd5b81600381111561132a577f4e487b7100000000000000000000000000000000000000000000000000000000600052602160045260246000fd5b1461136a576040517f08c379a000000000000000000000000000000000000000000000000000000000815260040161136190611e1d565b60405180910390fd5b60008080549050116113b1576040517f08c379a00000000000000000000000000000000000000000000000000000000081526004016113a890611ddd565b60405180910390fd5b6000805b6000805490508110156114f557600181141580156113d4575060058114155b80156114045750600360159054906101000a900460ff168015611402575060078114806114015750600881145b5b155b156114e257848281518110611442577f4e487b7100000000000000000000000000000000000000000000000000000000600052603260045260246000fd5b602002602001015160008281548110611484577f4e487b7100000000000000000000000000000000000000000000000000000000600052603260045260246000fd5b906000526020600020906007020160010160006101000a81548173ffffffffffffffffffffffffffffffffffffffff021916908373ffffffffffffffffffffffffffffffffffffffff16021790555081806114de90612047565b9250505b80806114ed90612047565b9150506113b5565b5050505050565b600360149054906101000a900460ff1681565b82805461151b90612015565b90600052602060002090601f01602090048101928261153d5760008555611584565b82601f1061155657805160ff1916838001178555611584565b82800160010185558215611584579182015b82811115611583578251825591602001919060010190611568565b5b5090506115919190611595565b5090565b5b808211156115ae576000816000905550600101611596565b5090565b60006115c56115c084611ec9565b611e98565b905080838252602082019050828560208602820111156115e457600080fd5b60005b8581101561161457816115fa888261165c565b8452602084019350602083019250506001810190506115e7565b5050509392505050565b600061163161162c84611ef5565b611e98565b90508281526020810184848401111561164957600080fd5b611654848285611fd3565b509392505050565b60008135905061166b8161212e565b92915050565b600082601f83011261168257600080fd5b81356116928482602086016115b2565b91505092915050565b6000813590506116aa81612145565b92915050565b6000815190506116bf8161215c565b92915050565b600082601f8301126116d657600080fd5b81356116e684826020860161161e565b91505092915050565b6000813590506116fe8161216c565b92915050565b60006020828403121561171657600080fd5b600082013567ffffffffffffffff81111561173057600080fd5b61173c84828501611671565b91505092915050565b60006020828403121561175757600080fd5b60006117658482850161169b565b91505092915050565b6000806040838503121561178157600080fd5b600061178f8582860161169b565b925050602083013567ffffffffffffffff8111156117ac57600080fd5b6117b8858286016116c5565b9150509250929050565b6000602082840312156117d457600080fd5b60006117e2848285016116b0565b91505092915050565b6000602082840312156117fd57600080fd5b600082013567ffffffffffffffff81111561181757600080fd5b611823848285016116c5565b91505092915050565b60006020828403121561183e57600080fd5b600061184c848285016116ef565b91505092915050565b60006118618383611be4565b905092915050565b61187281611f8b565b82525050565b61188181611f8b565b82525050565b600061189282611f35565b61189c8185611f58565b9350836020820285016118ae85611f25565b8060005b858110156118ea57848403895281516118cb8582611855565b94506118d683611f4b565b925060208a019950506001810190506118b2565b50829750879550505050505092915050565b61190581611f9d565b82525050565b61191481611f9d565b82525050565b600061192582611f40565b61192f8185611f69565b935061193f818560208601611fe2565b6119488161211d565b840191505092915050565b600061195e82611f40565b6119688185611f7a565b9350611978818560208601611fe2565b6119818161211d565b840191505092915050565b6000611999602783611f7a565b91507f4f6e6c792073757065727669736f722063616e20706572666f726d207468697360008301527f20616374696f6e000000000000000000000000000000000000000000000000006020830152604082019050919050565b60006119ff602a83611f7a565b91507f4f6e6c792061737369676e65642073757065727669736f722063616e2066616960008301527f6c207468652073746570000000000000000000000000000000000000000000006020830152604082019050919050565b6000611a65601b83611f7a565b91507f53746570732061727261792063616e6e6f7420626520656d70747900000000006000830152602082019050919050565b6000611aa5602e83611f7a565b91507f4f6e6c792061737369676e65642073757065727669736f722063616e20636f6d60008301527f706c6574652074686520737465700000000000000000000000000000000000006020830152604082019050919050565b6000611b0b602283611f7a565b91507f4f6e6c792061646d696e2063616e20706572666f726d2074686973206163746960008301527f6f6e0000000000000000000000000000000000000000000000000000000000006020830152604082019050919050565b6000611b71601a83611f7a565b91507f50726f636573732068617320616c7265616479206661696c65640000000000006000830152602082019050919050565b6000611bb1601f83611f7a565b91507f416c6c2073746570732061726520616c726561647920636f6d706c65746564006000830152602082019050919050565b6000610100830160008301518482036000860152611c02828261191a565b9150506020830151611c176020860182611869565b506040830151611c2a60408601826118fc565b506060830151611c3d6060860182611c9b565b506080830151611c506080860182611c9b565b5060a083015184820360a0860152611c68828261191a565b91505060c0830151611c7d60c0860182611c9b565b5060e0830151611c9060e08601826118fc565b508091505092915050565b611ca481611fc9565b82525050565b611cb381611fc9565b82525050565b6000602082019050611cce6000830184611878565b92915050565b60006020820190508181036000830152611cee8184611887565b905092915050565b6000602082019050611d0b600083018461190b565b92915050565b6000610100820190508181036000830152611d2c818b611953565b9050611d3b602083018a611878565b611d48604083018961190b565b611d556060830188611caa565b611d626080830187611caa565b81810360a0830152611d748186611953565b9050611d8360c0830185611caa565b611d9060e083018461190b565b9998505050505050505050565b60006020820190508181036000830152611db68161198c565b9050919050565b60006020820190508181036000830152611dd6816119f2565b9050919050565b60006020820190508181036000830152611df681611a58565b9050919050565b60006020820190508181036000830152611e1681611a98565b9050919050565b60006020820190508181036000830152611e3681611afe565b9050919050565b60006020820190508181036000830152611e5681611b64565b9050919050565b60006020820190508181036000830152611e7681611ba4565b9050919050565b6000602082019050611e926000830184611caa565b92915050565b6000604051905081810181811067ffffffffffffffff82111715611ebf57611ebe6120ee565b5b8060405250919050565b600067ffffffffffffffff821115611ee457611ee36120ee565b5b602082029050602081019050919050565b600067ffffffffffffffff821115611f1057611f0f6120ee565b5b601f19601f8301169050602081019050919050565b6000819050602082019050919050565b600081519050919050565b600081519050919050565b6000602082019050919050565b600082825260208201905092915050565b600082825260208201905092915050565b600082825260208201905092915050565b6000611f9682611fa9565b9050919050565b60008115159050919050565b600073ffffffffffffffffffffffffffffffffffffffff82169050919050565b6000819050919050565b82818337600083830152505050565b60005b83811015612000578082015181840152602081019050611fe5565b8381111561200f576000848401525b50505050565b6000600282049050600182168061202d57607f821691505b60208210811415612041576120406120bf565b5b50919050565b600061205282611fc9565b91507fffffffffffffffffffffffffffffffffffffffffffffffffffffffffffffffff82141561208557612084612090565b5b600182019050919050565b7f4e487b7100000000000000000000000000000000000000000000000000000000600052601160045260246000fd5b7f4e487b7100000000000000000000000000000000000000000000000000000000600052602260045260246000fd5b7f4e487b7100000000000000000000000000000000000000000000000000000000600052604160045260246000fd5b6000601f19601f8301169050919050565b61213781611f8b565b811461214257600080fd5b50565b61214e81611f9d565b811461215957600080fd5b50565b6004811061216957600080fd5b50565b61217581611fc9565b811461218057600080fd5b5056fe496c2063616d696f6e20646920726163636f6c7461206e6f6e206861206d616e74656e75746f206c612074656d7065726174757261207269636869657374614c61206c6f636174696f6e2064656c20747275636b20652720646976657273612064616c6c27616464726573732064692064657374696e617a696f6e65496c2063616d696f6e20646920636f6e7365676e61206e6f6e206861206d616e74656e75746f206c612074656d7065726174757261207269636869657374614c612063656c6c61206e6f6e206861206d616e74656e75746f206c612074656d706572617475726120726963686965737461a264697066735822122036c076c1193c69cf68ee674efbdbe529afb6239b1bcca518f3a730de4765635c64736f6c63430008000033a26469706673582212203c3b2c5a3f067cd6397a440855b242dd037d450853110e6a4a05da4707b8f3dc64736f6c63430008000033",
  "immutableReferences": {},
  "source": "// SPDX-License-Identifier: MIT\r\npragma solidity ^0.8.0;\r\n\r\nimport \"./MilkProcess.sol\";\r\n\r\n// The MilkProcessFactory contract is responsible for creating and managing MilkProcess instances\r\n// and handling user roles and permissions.\r\ncontract MilkProcessFactory {\r\n    // Enum to define different user roles\r\n    enum Role { None, Admin, Supervisor, Operator }\r\n\r\n    // Array to store addresses of all MilkProcess contracts created by this factory\r\n    address[] public processes;\r\n    \r\n    // Mapping from user addresses to their roles\r\n    mapping(address => Role) public roles;\r\n    \r\n    // Array to store all user addresses\r\n    address[] public users;\r\n    \r\n    // Counter to generate unique lot numbers for new MilkProcess contracts\r\n    uint lotNumber = 0;\r\n\r\n    // Constructor initializes the contract, sets the deployer as Admin, and adds them to the users list\r\n    constructor() {\r\n        roles[msg.sender] = Role.Admin;\r\n        users.push(msg.sender);\r\n    }\r\n\r\n    // Creates new MilkProcess instances and returns their addresses\r\n    function createNewProcess(uint quantity, bool isIntero) external onlyAdmin returns (address[] memory) {\r\n        address[] memory newProcesses = new address[](quantity);\r\n        for (uint i = 0; i < quantity; i++) {\r\n            lotNumber = lotNumber + 1;  \r\n            MilkProcess newProcess = new MilkProcess(lotNumber, address(this), isIntero);\r\n            processes.push(address(newProcess));  \r\n            newProcesses[i] = address(newProcess);\r\n        }\r\n        return newProcesses;\r\n    }\r\n\r\n    // Returns the addresses of all MilkProcess contracts created by this factory\r\n    function getAllProcesses() external view returns (address[] memory) {\r\n        return processes;\r\n    }\r\n\r\n    // Returns the roles and addresses of all users\r\n    function getAllRoles() external view returns (string[] memory, address[] memory) {\r\n        string[] memory userRoles = new string[](users.length);\r\n        for (uint i = 0; i < users.length; i++) {\r\n            if (roles[users[i]] == Role.Admin) {\r\n                userRoles[i] = \"1\";  // Admin role\r\n            } else if (roles[users[i]] == Role.Supervisor) {\r\n                userRoles[i] = \"2\";  // Supervisor role\r\n            } else if(roles[users[i]] == Role.Operator) {\r\n                userRoles[i] = \"3\";  // Operator role\r\n            } else {\r\n                userRoles[i] = \"0\";  // No role assigned\r\n            }\r\n        }\r\n        return (userRoles, users);\r\n    }\r\n\r\n    // Returns the role of a specific user\r\n    function getRole(address account) external view returns (Role) {\r\n        return roles[account];\r\n    }\r\n\r\n    // Assigns a role to a user and adds them to the users list if not already present\r\n    function assignRole(address account, Role role) external onlyAdmin {\r\n        roles[account] = role;\r\n        if (!isAccountInList(account)) {\r\n            users.push(account);  // Add account to users list if not already present\r\n        }\r\n    }\r\n\r\n    // Removes a role from a user and removes them from the users list\r\n    function removeRole(address account) external onlyAdmin {\r\n        require(roles[account] != Role.Admin || countAdmins() > 1, \"Cannot remove the last admin\");\r\n        roles[account] = Role.None;\r\n        removeAccountFromList(account);\r\n    }\r\n\r\n    // Counts the number of admins in the users list\r\n    function countAdmins() internal view returns (uint) {\r\n        uint count = 0;\r\n        for (uint i = 0; i < users.length; i++) {\r\n            if (roles[users[i]] == Role.Admin) {\r\n                count++;\r\n            }\r\n        }\r\n        return count;\r\n    }\r\n\r\n    // Checks if a specific account is in the users list\r\n    function isAccountInList(address account) internal view returns (bool) {\r\n        for (uint i = 0; i < users.length; i++) {\r\n            if (users[i] == account) {\r\n                return true;\r\n            }\r\n        }\r\n        return false;\r\n    }\r\n\r\n    // Removes a specific account from the users list\r\n    function removeAccountFromList(address account) internal {\r\n        for (uint i = 0; i < users.length; i++) {\r\n            if (users[i] == account) {\r\n                users[i] = users[users.length - 1];  // Replace with the last element\r\n                users.pop();  // Remove the last element\r\n                break;\r\n            }\r\n        }\r\n    }\r\n\r\n    // Modifier to restrict access to functions to only admins\r\n    modifier onlyAdmin() {\r\n        require(roles[msg.sender] == Role.Admin, \"Only admin can perform this action\");\r\n        _;\r\n    }\r\n}\r\n",
  "sourcePath": "C:\\Users\\samue\\Desktop\\MilkChain\\backend\\contracts\\MilkProcessFactory.sol",
  "compiler": {
    "name": "solc",
    "version": "0.8.0+commit.c7dfd78e.Emscripten.clang"
  },
  "schemaVersion": "3.4.16",
  "updatedAt": "2024-07-27T15:47:48.227Z",
  "networkType": "ethereum",
  "devdoc": {
    "kind": "dev",
    "methods": {},
    "version": 1
  },
  "userdoc": {
    "kind": "user",
    "methods": {},
    "version": 1
  }
}